:020000040800F2
:1000000000500020B51B0008D91A0008DF1A0008AC
:10001000E51A0008EB1A0008F11A000800000000B9
:10002000000000000000000000000000F71A0008B7
:10003000031B0008000000000F1B00081B1B00082A
:10004000FD1B0008FD1B0008FD1B0008FD1B000830
:10005000FD1B0008FD1B0008FD1B0008FD1B000820
:10006000FD1B0008FD1B0008FD1B0008FD1B000810
:10007000FD1B0008FD1B0008FD1B0008FD1B000800
:10008000FD1B0008FD1B0008FD1B0008FD1B0008F0
:10009000FD1B0008FD1B0008FD1B0008FD1B0008E0
:1000A000FD1B0008FD1B0008FD1B0008FD1B0008D0
:1000B000291B0008FD1B0008FD1B0008FD1B000894
:1000C000FD1B0008FD1B0008FD1B0008FD1B0008B0
:1000D000FD1B0008FD1B0008FD1B0008FD1B0008A0
:1000E000FD1B0008FD1B0008FD1B000800000000B0
:1000F0000000000000000000000000000000000000
:0C01000000000000000000005FF808F1A3
:10010C0010B5054C237833B9044B13B10448AFF345
:10011C0000800123237010BD0801002000000000A6
:10012C005049000808B5034B1BB103490348AFF312
:10013C00008008BD000000000C01002050490008A0
:10014C00034613F8012B002AFBD1181A013870470B
:10015C0080B588B000AF78600023FB6107E0154ADA
:10016C00FB69002142F82310FB690133FB61FB6939
:10017C00032BF4DD7B68013307F108000E4A1421D0
:10018C0003F072FF07F108031846FFF7D9FF034687
:10019C009AB207F108014FF47A73084803F05EFD38
:1001AC00044A7B68012142F8231000BF2037BD466A
:1001BC0080BD00BF240100206849000830040020E5
:1001CC0080B400AF034B01221A6000BFBD4680BC57
:1001DC00704700BF3401002080B582B000AF574B90
:1001EC001B68574A1360574B1B68544A1360012114
:1001FC00554802F017F803461A46524B1A604F4BFB
:10020C005B684F4A53604F4B5B684C4A536002210A
:10021C004D4802F007F803461A464A4B5A60474BC2
:10022C009B68474A9360474B9B68444A93601021F4
:10023C00454801F0F7FF03461A46424B9A603F4B84
:10024C00DB683F4AD3603F4BDB683C4AD3600121FB
:10025C003E4801F0E7FF03461A463A4BDA600023AA
:10026C007B6063E0364A7B6852F8232033497B6815
:10027C0051F823309A4256D1304A7B6852F82320E9
:10028C0030497B6851F823309A424CD1304A7B6814
:10029C0052F823202B497B6851F823309A4217D00F
:1002AC00284A7B6852F8232029497B6841F823208F
:1002BC00244A7B6852F82330002B34D17868FFF73E
:1002CC0047FF244A7B684FF4FA6142F823102AE076
:1002DC00204A7B6852F823305A1E1E497B6841F82D
:1002EC0023201C4A7B6852F82330002B1BD17B68DF
:1002FC00002B06D1134B1B68002B02D1FFF760FFBC
:10030C000BE07B68002B08D00E4A7B6852F8233038
:10031C00002B02D17868FFF71BFF0E4A7B684FF465
:10032C00FA6142F823107B6801337B607B68032BF6
:10033C0098DD00BF00BF0837BD4680BD100000200F
:10034C00000000202000002000080140000C0140AB
:10035C00300000204000002080B500AF00210020BC
:10036C0000F014FD054800F0F5FC0021012000F020
:10037C000DFD034800F0EEFC00BF80BD9004002092
:10038C007C04002080B400AF1E4B01221A601E4B6F
:10039C0000221A601D4B01221A601D4B00221A60AC
:1003AC001C4B1B681C4A13601C4B1B681C4A1360BB
:1003BC001C4B1B681C4A1360164B1B681B4A1360B2
:1003CC00164B1B681A4A1360164B1B68194A1360AC
:1003DC00194B01221A60194B01221A60184B022288
:1003EC001A60184B00221A60174B00221A60174B28
:1003FC0001221A60164B00221A6000BFBD4680BC59
:10040C00704700BF50000020400100205400002025
:10041C0044010020800000205C00002084000020AB
:10042C00600000208800002064000020680000208C
:10043C006C00002070000020740000207800002068
:10044C007C000020500100204C01002058000020AE
:10045C004801002080B500AF8E4B1B68022B5BD08F
:10046C00022B00F38680002B02D0012B2AD080E0D7
:10047C0000F0AEFC00F012FD874B1B68092B07DC6B
:10048C00854B1B681A468549854803F021FE06E01A
:10049C00814B1B681A468349814803F019FE7E4B39
:1004AC001B68013B7C4A13607B4B1B68002B5BD1A8
:1004BC007D4B1B68784A1360764B1B680133754A79
:1004CC00136051E000F094FC00F0FAFC774B1B68D1
:1004DC00092B07DC754B1B681A467049704803F0F2
:1004EC00F7FD06E0714B1B681A466E496C4803F029
:1004FC00EFFD6E4B1B68013B6C4A13606B4B1B682A
:10050C00002B33D16A4B1B68684A1360614B1B6824
:10051C000133604A136029E000F07AFC00F0E2FC41
:10052C00644B1B68092B07DC624B1B681A465B4942
:10053C005B4803F0CDFD06E05E4B1B681A4659493B
:10054C00574803F0C5FD5B4B1B68013B594A1360D0
:10055C00584B1B68002B0BD1574B1B68554A13602B
:10056C004C4B00221A6003E000BF02E000BF00E029
:10057C0000BF524B1B68022B5BD0022B00F3868012
:10058C00002B02D0012B2AD080E000F051FC00F0AF
:10059C00BBFC4B4B1B68092B07DC494B1B681A46F1
:1005AC004849494803F094FD06E0454B1B681A4640
:1005BC004649454803F08CFD414B1B68013B404AC2
:1005CC0013603F4B1B68002B5BD1374B1B683C4ABD
:1005DC0013603A4B1B680133384A136051E000F04A
:1005EC0039FC00F0A3FC3A4B1B68092B07DC384B99
:1005FC001B681A463349344803F06AFD06E0344B55
:10060C001B681A463149304803F062FD304B1B68B9
:10061C00013B2F4A13602E4B1B68002B33D1244B0C
:10062C001B682B4A1360254B1B680133234A13604C
:10063C0029E000F021FC00F08BFC264B1B68092BF9
:10064C0007DC244B1B681A461E491F4803F040FD6B
:10065C0006E0204B1B681A461C491B4803F038FD6A
:10066C001C4B1B68013B1B4A13601A4B1B68002B6D
:10067C000BD1114B1B68174A1360104B00221A60E8
:10068C0003E000BF02E000BF00E000BFFFF764FE24
:10069C0000BF80BD4C0100205C0000206C490008AC
:1006AC00900400207C490008800000206400002099
:1006BC0088000020600000208400002058000020EA
:1006CC00680000208C4900087C0400209C4900082C
:1006DC00700000206C00002080B500AF1E4B1B6822
:1006EC00022B28D0022B35DC002B02D0012B11D091
:1006FC0030E000F06DFB00F0D1FB184B1B681A4684
:10070C001749184803F0E4FC134B1B680133124AD9
:10071C0013601FE000F06CFB00F0D2FB124B1B6867
:10072C001A460F490F4803F0D3FC0B4B1B680133DF
:10073C00094A13600EE000F06BFB00F0D3FB0B4B8F
:10074C001B681A460649074803F0C2FC024B0022FC
:10075C001A6000BF00BF80BD4C0100205C0000206F
:10076C00AC490008900400206400002060000020C8
:10077C0080B500AF1E4B1B68022B28D0022B35DC3A
:10078C00002B02D0012B11D030E000F051FB00F017
:10079C00BBFB184B1B681A461749184803F098FC0A
:1007AC00134B1B680133124A13601FE000F052FB1D
:1007BC0000F0BCFB124B1B681A460F490F4803F0A4
:1007CC0087FC0B4B1B680133094A13600EE000F0E9
:1007DC0053FB00F0BDFB0B4B1B681A460649074840
:1007EC0003F076FC024B00221A6000BF00BF80BDF4
:1007FC005800002068000020B84900087C04002044
:10080C00700000206C00002080B588B000AF7860CC
:10081C0039605D4B1B68012B27D17B68032B1BD0E8
:10082C007B68032B23DC7B68012B03D07B68022BBA
:10083C0009D01CE000F0CCFA00F0FAFA00F02EFB24
:10084C0000F062FB13E000F0E3FA00F015FB00F09F
:10085C0049FB00F07DFB0AE000F0CAFA00F0FAFA5E
:10086C0000F02EFB00F062FB01E000F083FB474B35
:10087C005B68012B0BD1454B00225A603B68632B04
:10088C0002D101233B6002E03B6801333B603F4BEC
:10089C00DB68012B05D13D4B0022DA603B68013B44
:1008AC003B603B68002B01D163233B60374B9B685B
:1008BC00012B1BD1354B00229A607B68032B11D086
:1008CC007B68032B13DC7B68012B03D07B68022B2A
:1008DC0004D00CE02E4A3B68136008E02D4A3B68BC
:1008EC00136004E02C4A3B68136000E000BF002159
:1008FC00002000F04BFA7B68012B11D13B68092BCF
:10090C0007DC07F10C033A682449184603F0E0FBB6
:10091C0006E007F10C033A682149184603F0D8FBAE
:10092C007B68022B11D13B68092B07DC07F10C0308
:10093C003A681C49184603F0CBFB06E007F10C03A0
:10094C003A681949184603F0C3FB7B68032B11D195
:10095C003B68092B07DC07F10C033A68134918466E
:10096C0003F0B6FB06E007F10C033A681049184691
:10097C0003F0AEFB07F10C03184600F0EBF93B68F3
:10098C0018462037BD4680BD5000002024010020B1
:10099C008C0000209000002094000020C449000826
:1009AC00D4490008E4490008F8490008084A00083E
:1009BC00184A000880B58AB000AF854B1B68012B24
:1009CC0057D100F0DCF9824B00221A60814B1B6876
:1009DC000133804A1360804B01221A607D4B1B68E7
:1009EC00042B03D07B4B1B68062B39D1022000F063
:1009FC000BFE00F0C4F9794B1A68794B1B681A444A
:100A0C00784B1B689A420CD1764B1B68764A136064
:100A1C00724B1B68754A1360714B1B68744A1360E8
:100A2C0018E0704B1A686E4B1B689A4212DD6D4BC6
:100A3C001A686B4B1B68D31A684A1360694B1B68A6
:100A4C00694A1360654B1B68684A1360644B1B68EA
:100A5C00674A1360FFF796FC5E4B00221A6008E0B1
:100A6C005C4B1B68012B04D132223221614800F00F
:100A7C00C7FC584B1B68002B16D0564B1B68062B1B
:100A8C0012D00021012000F081F9524B1B685A1C36
:100A9C0007F114035849184603F01AFB07F1140325
:100AAC00184600F057F910E04A4B1B68062B0CD186
:100ABC000021012000F06AF93B465049184603F02A
:100ACC0007FB3B46184600F045F9424B1B68032BCD
:100ADC0052D801A252F823F0F50A0008FB0A0008CC
:100AEC00290B0008570B0008FFF7B4FC44E03A4B05
:100AFC001B68012B06D13C4B1B68414A1360364BDB
:100B0C0000221A60334B1B683D4A12681146184686
:100B1C00FFF77AFE03463A4A13602DE02E4B1B6812
:100B2C00012B06D1324B1B68354A13602A4B00222D
:100B3C001A60284B1B68324A126811461846FFF798
:100B4C0063FE03462E4A136016E0234B1B68012BF1
:100B5C0006D1264B1B682A4A13601F4B00221A60D1
:100B6C001C4B1B68264A126811461846FFF74CFEB0
:100B7C000346234A136000BF224B1B68012B09D18B
:100B8C0000F0FDF8FFF7A8FD124B05221A601D4B73
:100B9C0000221A600F4B1B68052B15D10C4B5B68A0
:100BAC00012B06D100F0EBF8FFF796FD084B002265
:100BBC005A60074B9B68012B06D100F0E0F8FFF759
:100BCC00D7FD034B00229A6000BF2837BD4680BD7D
:100BDC00240100203C01002038010020940000205A
:100BEC00900000208C000020800000208800002055
:100BFC0084000020150C0008284A0008344A00081C
:100C0C00780400203401002080B400AF094B1B682D
:100C1C00002B02D0012B04D007E0064B01221A60F6
:100C2C0003E0044B00221A6000BF00BFBD4680BC2D
:100C3C00704700BF5000002080B586B002AF03465D
:100C4C00FB71FB7923F00F03FB73FB791B01BB7367
:100C5C00FB7B43F00C03DBB23B72FB7B43F00803E2
:100C6C00DBB27B72BB7B43F00C03DBB2BB72BB7B96
:100C7C0043F00803DBB2FB7207F108026423009314
:100C8C0004234221034801F041FC00BF1037BD464C
:100C9C0080BD00BFA404002080B586B002AF03461F
:100CAC00FB71FB7923F00F03FB73FB791B01BB7307
:100CBC00FB7B43F00D03DBB23B72FB7B43F0090380
:100CCC00DBB27B72BB7B43F00D03DBB2BB72BB7B35
:100CDC0043F00903DBB2FB7207F1080264230093B3
:100CEC0004234221034801F011FC00BF1037BD461C
:100CFC0080BD00BFA404002080B500AF3320FFF7F7
:100D0C009BFF3220FFF798FF322000F0D5FF282000
:100D1C00FFF792FF322000F0CFFF0120FFF78CFF8E
:100D2C00322000F0C9FF0620FFF786FF322000F0CA
:100D3C00C3FF0C20FFF780FF322000F0BDFF022024
:100D4C00FFF77AFF322000F0B7FF8020FFF774FF27
:100D5C0000BF80BD80B582B000AF786006E07B68D4
:100D6C005A1C7A601B781846FFF796FF7B681B7835
:100D7C00002BF4D100BF00BF0837BD4680BD80B545
:100D8C0000AF0120FFF758FF00BF80BD80B584B0D5
:100D9C0000AF786039607B68012B08D17B68DAB2D0
:100DAC003B68DBB21344DBB27F33FB7308E03B6878
:100DBC00DBB24033DBB25BB263F07F035BB2FB733D
:100DCC00FB7B1846FFF738FF00BF1037BD4680BDD0
:100DDC0080B500AF01220821044801F03AFA012243
:100DEC002021024801F035FA00BF80BD000C014003
:100DFC0080B500AF01220821044801F02AFA002234
:100E0C002021024801F025FA00BF80BD000C0140F2
:100E1C0080B500AF00220821044801F01AFA012223
:100E2C002021024801F015FA00BF80BD000C0140E2
:100E3C0080B500AF01221021054801F00AFA012209
:100E4C004FF48061024801F004FA00BF80BD00BF7E
:100E5C00000C014080B500AF01221021054801F0C3
:100E6C00F8F900224FF48061024801F0F2F900BF5A
:100E7C0080BD00BF000C014080B500AF00221021E6
:100E8C00054801F0E6F901224FF48061024801F0B7
:100E9C00E0F900BF80BD00BF000C014080B500AF81
:100EAC0001224FF48071054801F0D3F901224FF46F
:100EBC000071024801F0CDF900BF80BD000801406F
:100ECC0080B500AF01224FF48071054801F0C1F9E3
:100EDC0000224FF40071024801F0BBF900BF80BD45
:100EEC000008014080B500AF00224FF48071054826
:100EFC0001F0AFF901224FF40071024801F0A9F999
:100F0C0000BF80BD0008014080B500AF01228021E8
:100F1C00044801F09EF901224021034801F099F99F
:100F2C0000BF80BD00100140000C014080B500AF37
:100F3C0001228021044801F08CF900224021034851
:100F4C0001F087F900BF80BD00100140000C01408A
:100F5C0080B500AF00228021044801F07AF901220B
:100F6C004021034801F075F900BF80BD001001401D
:100F7C00000C014080B500AF00220821154801F09B
:100F8C0068F900222021134801F063F90022102196
:100F9C00104801F05EF900224FF480610D4801F019
:100FAC0058F900224FF480710B4801F052F90022DD
:100FBC004FF40071084801F04CF9002280210748D9
:100FCC0001F047F900224021024801F042F900BF2C
:100FDC0080BD00BF000C0140000801400010014022
:100FEC0080B500AF00F006FE00F01EF800F02CF902
:100FFC0000F08AF800F05AF800F0D2F800F0FAF895
:10100C00FFF77AFE064802F037FA4FF47A724FF483
:10101C007A71044800F0F4F900F0B4FBFCE700BF6F
:10102C00F8040020C109000880B590B000AF07F1AA
:10103C00180328220021184603F00EF83B1D00224D
:10104C001A605A609A60DA601A610223BB6101234C
:10105C00BB621023FB6202237B630023BB634FF450
:10106C006013FB6307F11803184601F0A7FD034654
:10107C00002B01D000F084F90F237B600223BB60AE
:10108C000023FB604FF480633B6100237B613B1DBD
:10109C000221184602F012F80346002B01D000F092
:1010AC006FF900BF4037BD4680BD000080B500AF72
:1010BC00124B134A1A60114B124A5A600F4B002202
:1010CC009A600E4B0022DA600C4B4FF480421A618E
:1010DC000A4B00225A61094B00229A61074B0022ED
:1010EC00DA61064B00221A62044801F0CBF8034681
:1010FC00002B01D000F044F900BF80BDA4040020F7
:10110C0000540040A086010080B586B000AF07F106
:10111C00080300221A605A609A60DA603B4600228B
:10112C001A605A601D4B4FF080421A601B4B002214
:10113C005A601A4B00229A60184B4FF6FF72DA6015
:10114C00164B00221A61154B00229A61134802F0CB
:10115C0043F90346002B01D000F012F94FF48053F1
:10116C00BB6007F1080319460C4802F0C7FA0346A6
:10117C00002B01D000F004F900233B6000237B60BE
:10118C003B461946054802F0A9FC0346002B01D04A
:10119C0000F0F6F800BF1837BD4680BDF8040020FB
:1011AC0080B500AF114B124A1A60104B4FF4E1326C
:1011BC005A600E4B00229A600C4B0022DA600B4BEB
:1011CC0000221A61094B0C225A61084B00229A61C9
:1011DC00064B0022DA61054802F0F0FC0346002BB6
:1011EC0001D000F0CDF800BF80BD00BF300400205E
:1011FC000044004080B500AF114B124A1A60104BEE
:10120C004FF4E1325A600E4B00229A600C4B0022D4
:10121C00DA600B4B00221A61094B0C225A61084B05
:10122C0000229A61064B0022DA61054802F0C6FCE6
:10123C000346002B01D000F0A3F800BF80BD00BF17
:10124C00E80300200048004080B588B000AF07F1EB
:10125C00100300221A605A609A60DA603E4B9B6958
:10126C003D4A43F0040393613B4B9B6903F0040339
:10127C00FB60FB68384B9B69374A43F0080393616A
:10128C00354B9B6903F00803BB60BB68324B9B6911
:10129C00314A43F0100393612F4B9B6903F0100309
:1012AC007B607B6800224FF448712C4800F0D1FF22
:1012BC0000224FF49F612A4800F0CBFF00228021CE
:1012CC00284800F0C6FF13233B6100237B610023F9
:1012DC00BB6107F110031946204800F01FFE4FF4C4
:1012EC0048733B6101237B610023BB610223FB61DB
:1012FC0007F110031946194800F010FE01233B6159
:10130C0000237B610023BB6107F1100319461448CD
:10131C0000F004FE4FF49F633B6101237B610023CB
:10132C00BB610223FB6107F1100319460C4800F066
:10133C00F5FD80233B6101237B610023BB6102230C
:10134C00FB6107F110031946064800F0E7FD00BFEA
:10135C002037BD4680BD00BF001002400008014090
:10136C00000C01400010014080B582B000AF7860E5
:10137C00FEF732FF00F024F800BF0837BD4680BDF1
:10138C0080B400AF72B600BFFEE7000080B400AFBF
:10139C000A4B1B8801339AB2084B1A80074B1B88E7
:1013AC00002B05D1054B1B8801339AB2034B1A80D5
:1013BC00024B1B881846BD4680BC7047D4030020E6
:1013CC0080B400AF0D4B1B68002B13D00B4B1B7B59
:1013DC00002B0FD1094B5B68002B04D0074B5B68CB
:1013EC00013B064A5360054B5B68002B02D1034B53
:1013FC0001221A7300BFBD4680BC70475401002007
:10140C0080B588B000AFF860B9607A600023FB83C8
:10141C000023BB6100233B61E5E0FB8B794A1B0198
:10142C00134404331B68BA691344BB61BA69BB68C3
:10143C009A4240F28F80FB8B724A1B011344043397
:10144C001A68BB69D31ABA6813443B61FB8BB96940
:10145C00BA688A1A6B491B010B4404331A602723A0
:10146C00FB7535E0FB7D5A1EFB7D664912010A4473
:10147C00126864491B010B441A60FB7D5A1EFB7DEC
:10148C00604912010A44083212685E491B010B4480
:10149C0008331A60FB7D5A1EFB7D5A4912010A441F
:1014AC000432126857491B010B4404331A60FB7D4C
:1014BC005A1EFB7D534912010A440E321188514ABF
:1014CC001B0113440E330A461A80FB7D013BFB754E
:1014DC00FB7D9BB2FA8B9A42C4D3FB8B494A1B010E
:1014EC001344FA681A60FB8B464A1B0113440433FD
:1014FC003A691A60FB8B434A1B01134408337A6820
:10150C001A60FB8B3F4A1B01134404331B68002BEE
:10151C0007D1FB8B3B4A1B0113440C3301221A707D
:10152C0006E0FB8B374A1B0113440C3300221A7064
:10153C00FFF72CFF0246FB8B91B2324A1B0113447E
:10154C000E330A461A80FB8B2E4A1B0113440E33B2
:10155C001B8852E0FB8B2B4A1B0113441B68002B8E
:10156C003ED1FB8B274A1B011344FA681A60FB8B94
:10157C00B968BA698A1A23491B010B4404331A60EF
:10158C00FB8B204A1B01134408337A681A60FB8BCF
:10159C001C4A1B01134404331B68002B07D1FB8B23
:1015AC00184A1B0113440C3301221A7006E0FB8B02
:1015BC00144A1B0113440C3300221A70FFF7E6FE89
:1015CC000246FB8B91B20F4A1B0113440E330A46A1
:1015DC001A80FB8B0B4A1B0113440E331B880CE047
:1015EC00FB8B0133FB83FB8B272B7FF616AFFB8B1F
:1015FC00044A1B0113440E331B8818462037BD4682
:10160C0080BD00BF5401002080B485B000AF78606D
:10161C0000237B817B68002B00F0AB800023FB81D7
:10162C00A3E0FB89564A1B0113440E331B881A4650
:10163C007B68934240F096804FF6FF737B81FB8969
:10164C00002B1FD0FB89262B1CD8FB8901334C4A5D
:10165C001B0113441B68002B14D0FB890133484A2F
:10166C001B01134404331968FB89454A1B011344BD
:10167C0004331A68FB8901330A4441491B010B44AA
:10168C0004331A60FB89BB8143E0BB895A1CBB89BC
:10169C003B4912010A44126839491B010B441A6078
:1016AC00BB895A1CBB89364912010A44083212689C
:1016BC0033491B010B4408331A60BB895A1CBB8984
:1016CC002F4912010A44043212682D491B010B44A4
:1016DC0004331A60BB895A1CBB89294912010A447C
:1016EC000C321178264A1B0113440C330A461A702B
:1016FC00BB895A1CBB89224912010A440E3211883B
:10170C001F4A1B0113440E330A461A80BB8901334E
:10171C00BB81BB89262BB8D9BB89194A1B01134441
:10172C0000221A60BB89164A1B011344083300229D
:10173C001A60BB89124A1B011344043300221A603D
:10174C00BB890F4A1B0113440C3300221A70BB894E
:10175C000B4A1B0113440E3300221A8000237B8199
:10176C00002308E0FB890133FB81FB89272B7FF6E3
:10177C0058AF7B89DBB218461437BD4680BC704726
:10178C005401002090B585B000AF114B1B7B002B92
:10179C0017D00F4B1B6898470D4B00221A730C4B3C
:1017AC003C460FCB84E80F00FB891846FFF72CFF53
:1017BC00BB68002B05D03B68B968BA681846FFF7C0
:1017CC001FFE00F007F800BF1437BD4690BD00BFE8
:1017DC005401002080B400AF184B1A78184B1B78BA
:1017EC009A4216D0154B1B78DB43DAB2154B1A70A4
:1017FC00124B1A78124B1A70104B1B78002B04D01A
:10180C00114B4EF660221A8014E00F4B00221A8006
:10181C0010E00D4B1B88002B0CD00B4B1B88013B95
:10182C009AB2094B1A80084B1B88002B02D1034B30
:10183C0000221A7000BFBD4680BC7047D603002042
:10184C00D7030020D8030020DA03002080B485B031
:10185C0000AF154B9B69144A43F001039361124B83
:10186C009B6903F00103BB60BB680F4BDB690E4A3D
:10187C0043F08053D3610C4BDB6903F080537B60E6
:10188C007B680A4B5B68FB60FB6823F0E063FB60E2
:10189C00FB6843F00073FB60044AFB68536000BFB5
:1018AC001437BD4680BC7047001002400000014058
:1018BC0080B58AB000AF786007F1140300221A607B
:1018CC005A609A60DA607B681B681D4A934232D179
:1018DC001C4B9B691B4A43F008039361194B9B6992
:1018EC0003F008033B613B694FF440737B611223A7
:1018FC00BB6103233B6207F114031946124800F045
:10190C000DFB124B5B687B627B6A43F0E0637B628E
:10191C007B6A43F002037B620C4A7B6A5360094B7F
:10192C00DB69084A43F40013D361064BDB6903F40B
:10193C000013FB60FB6800BF2837BD4680BD00BFAD
:10194C000054004000100240000C01400000014017
:10195C0080B584B000AF78607B681B68B3F1804FB2
:10196C0013D10C4BDB690B4A43F00103D361094BD8
:10197C00DB6903F00103FB60FB68002200211C20E3
:10198C0000F095FA1C2000F0AEFA00BF1037BD46EF
:10199C0080BD00BF0010024080B58CB000AF7860F5
:1019AC0007F11C0300221A605A609A60DA607B68A7
:1019BC001B68404A934230D13F4BDB693E4A43F4AB
:1019CC000033D3613C4BDB6903F40033BB61BB696F
:1019DC00394B9B69384A43F004039361364B9B693E
:1019EC0003F004037B617B690423FB6102233B62EC
:1019FC000323BB6207F11C031946304800F08EFA32
:101A0C000823FB6100233B6200237B6207F11C036C
:101A1C0019462A4800F082FA48E07B681B68284A7D
:101A2C00934243D1244BDB69234A43F48023D36193
:101A3C00214BDB6903F480233B613B691E4B9B69A3
:101A4C001D4A43F0100393611B4B9B6903F0100379
:101A5C00FB60FB684FF48063FB6102233B62032352
:101A6C00BB6207F11C031946164800F057FA4FF4F5
:101A7C000063FB6100233B6200237B6207F11C03C4
:101A8C001946104800F04AFA0F4B5B68FB62FB6A80
:101A9C0023F03003FB62FB6A43F0E063FB62FB6AFA
:101AAC0043F01003FB62084AFB6A536000BF3037F7
:101ABC00BD4680BD004400400010024000080140BB
:101ACC0000480040001001400000014080B400AF0D
:101ADC00FEE780B400AFFEE780B400AFFEE780B451
:101AEC0000AFFEE780B400AFFEE780B400AF00BFEC
:101AFC00BD4680BC704780B400AF00BFBD4680BC03
:101B0C00704780B400AF00BFBD4680BC704780B545
:101B1C0000AF00F0B5F800BF80BD000080B500AF8D
:101B2C00024801F0FBFC00BF80BD00BFF8040020A0
:101B3C0080B586B000AF7860144A154BD31A7B6120
:101B4C007B693B61134B1B68002B02D1114B124A72
:101B5C001A60104B1A687B6813443A699A4207D290
:101B6C0002F050FA03460C221A604FF0FF3309E0E2
:101B7C00084B1B68FB60074B1A687B681344054ACB
:101B8C001360FB6818461837BD4680BD0050002016
:101B9C0000040000DC0300205805002080B400AFD6
:101BAC0000BFBD4680BC7047FFF7F8FF0B480C49DF
:101BBC000C4A002302E0D458C4500433C4188C429D
:101BCC00F9D3094A094C002301E013600432A24204
:101BDC00FBD302F01DFAFFF703FA70470000002058
:101BEC0008010020A84A0008080100205405002024
:101BFC00FEE7000080B500AF084B1B68074A43F0B6
:101C0C0010031360032000F047F90F2000F008F8D0
:101C1C00FFF71CFE0023184680BD00BF00200240C9
:101C2C0080B582B000AF7860124B1A68124B1B78EB
:101C3C0019464FF47A73B3FBF1F3B2FBF3F3184686
:101C4C0000F05FF90346002B01D001230EE07B6806
:101C5C000F2B0AD8002279684FF0FF3000F027F9DB
:101C6C00064A7B681360002300E0012318460837FE
:101C7C00BD4680BD98000020A00000209C000020E4
:101C8C0080B400AF054B1B781A46054B1B681344F8
:101C9C00034A136000BFBD4680BC7047A000002003
:101CAC004005002080B400AF024B1B681846BD46AF
:101CBC0080BC70474005002080B584B000AF7860D0
:101CCC00FFF7F0FFB8607B68FB60FB68B3F1FF3F88
:101CDC0005D00A4B1B781A46FB681344FB6000BF07
:101CEC00FFF7E0FF0246BB68D31AFA689A42F7D8AE
:101CFC0000BF00BF1037BD4680BD00BFA000002054
:101D0C0080B485B000AF78607B6803F00703FB609C
:101D1C000C4BDB68BB60BA684FF6FF031340BB602B
:101D2C00FB681A02BB68134343F0BF6343F40033F0
:101D3C00BB60044ABB68D36000BF1437BD4680BC8F
:101D4C00704700BF00ED00E080B400AF044BDB68CF
:101D5C001B0A03F007031846BD4680BC704700BF42
:101D6C0000ED00E080B483B000AF0346FB7197F93F
:101D7C000730002B0BDBFB7903F01F02064997F9A8
:101D8C0007305B09012000FA02F241F8232000BF62
:101D9C000C37BD4680BC704700E100E080B483B0D6
:101DAC0000AF03463960FB7197F90730002B0ADB53
:101DBC003B68DAB20C4997F907301201D2B20B44E6
:101DCC0083F800230AE03B68DAB20849FB7903F098
:101DDC000F03043B1201D2B20B441A7600BF0C372E
:101DEC00BD4680BC704700BF00E100E000ED00E0A4
:101DFC0080B489B000AFF860B9607A60FB6803F01A
:101E0C000703FB61FB69C3F10703042B28BF042301
:101E1C00BB61FB690433062B02D9FB69033B00E071
:101E2C0000237B614FF0FF32BB6902FA03F3DA4304
:101E3C00BB681A407B699A404FF0FF317B6901FA0D
:101E4C0003F3D9437B680B40134318462437BD4634
:101E5C0080BC704780B582B000AF78607B68013B76
:101E6C00B3F1807F01D301230FE00A4A7B68013B69
:101E7C0053600F214FF0FF30FFF790FF054B00220E
:101E8C009A60044B07221A60002318460837BD4697
:101E9C0080BD00BF10E000E080B582B000AF78607C
:101EAC007868FFF72DFF00BF0837BD4680BD80B5B1
:101EBC0086B000AF0346B9607A60FB7300237B6188
:101ECC00FFF742FF78617A68B9687869FFF790FF8D
:101EDC00024697F90F3011461846FFF75FFF00BF17
:101EEC001837BD4680BD80B582B000AF0346FB718C
:101EFC0097F907301846FFF735FF00BF0837BD4686
:101F0C0080BD80B582B000AF78607868FFF7A2FF23
:101F1C00034618460837BD4680BD000080B48BB020
:101F2C0000AF7860396000237B6200233B6269E17B
:101F3C0001227B6A02FA03F3FB613B681B68FA69B6
:101F4C001340BB61BA69FB699A4240F058813B6807
:101F5C005B689A4A93425ED0984A934275D8984AE5
:101F6C00934258D0964A93426FD8964A934252D095
:101F7C00944A934269D8944A93424CD0924A9342E1
:101F8C0063D8924A934246D0904A93425DD8122B22
:101F9C002AD8122B59D801A252F823F0232000087A
:101FAC00FD1F00080F2000085120000857200008D2
:101FBC005720000857200008572000085720000819
:101FCC005720000857200008572000085720000809
:101FDC0057200008572000085720000857200008F9
:101FEC000520000819200008794A934213D02CE0F0
:101FFC003B68DB683B6229E03B68DB6804333B628F
:10200C0024E03B68DB6808333B621FE03B68DB681D
:10201C000C333B621AE03B689B68002B02D1042313
:10202C003B6213E03B689B68012B05D108233B62A4
:10203C007B68FA691A6109E008233B627B68FA69DC
:10204C005A6103E000233B6200E000BFBB69FF2B39
:10205C0001D87B6801E07B6804337B61BB69FF2B93
:10206C0002D87B6A9B0002E07B6A083B9B003B61C9
:10207C007B691A680F213B6901FA03F3DB431A40B1
:10208C00396A3B6901FA03F31A437B691A603B68AE
:10209C005B6803F08053002B00F0B1804D4B9B69C3
:1020AC004C4A43F0010393614A4B9B6903F00103D3
:1020BC00BB60BB68484A7B6A9B08023352F82330EA
:1020CC00FB607B6A03F003039B000F2202FA03F30D
:1020DC00DB43FA681340FB607B68404A934213D0A1
:1020EC007B683F4A93420DD07B683E4A934207D0AF
:1020FC007B683D4A934201D1032306E0042304E0AC
:10210C00022302E0012300E000237A6A02F00302BA
:10211C0092009340FA681343FB602F497B6A9B083B
:10212C000233FA6841F823203B685B6803F48013A0
:10213C00002B06D02D4B9A682C49BB6913438B603E
:10214C0006E02A4B9A68BB69DB43284913408B6035
:10215C003B685B6803F40013002B06D0234BDA6852
:10216C002249BB691343CB6006E0204BDA68BB699C
:10217C00DB431E491340CB603B685B6803F40033C0
:10218C00002B06D0194B5A681849BB6913434B6096
:10219C0006E0164B5A68BB69DB43144913404B608D
:1021AC003B685B6803F48033002B21D00F4B1A681B
:1021BC000E49BB6913430B6021E000BF00003210D5
:1021CC00000031100000221000002110000012103D
:1021DC0000001110001002400000014000080140F6
:1021EC00000C0140001001400014014000040140AB
:1021FC000B4B1A68BB69DB43094913400B607B6AC4
:10220C0001337B623B681A687B6A22FA03F3002B6A
:10221C007FF48EAE00BF00BF2C37BD4680BC70472C
:10222C000004014080B485B000AF78600B467B8021
:10223C007B689A687B881340002B02D00123FB73C8
:10224C0001E00023FB73FB7B18461437BD4680BCB2
:10225C00704780B483B000AF78600B467B80134628
:10226C007B707B78002B03D07A887B681A6103E043
:10227C007B881A047B681A6100BF0C37BD4680BC92
:10228C007047000080B584B000AF78607B68002B8D
:10229C0001D101232BE17B6893F83D30DBB2002B9D
:1022AC0006D17B68002283F83C207868FFF700FB9E
:1022BC007B68242283F83D207B681B681A687B6846
:1022CC001B6822F001021A607B681B681A687B6825
:1022DC001B6842F400421A607B681B681A687B68B2
:1022EC001B6822F400421A6001F030F8F8607B6839
:1022FC005B68814A934207D8FB68804A934294BF3B
:10230C0001230023DBB206E0FB687D4A934294BFB5
:10231C0001230023DBB2002B01D00123E7E0FB6893
:10232C00784AA2FB03239B0CBB607B681B685B6831
:10233C0023F03F017B681B68BA680A435A607B68CC
:10234C001B681B6A23F03F017B685B686A4A9342F7
:10235C0002D8BB68013309E0BB684FF4967202FBEC
:10236C0003F3694AA2FB03239B0901337A681268C1
:10237C000B4313627B681B68DB6923F44F4222F02A
:10238C00FF027B685B685C498B4219D8FB68591E5D
:10239C007B685B685B00B1FBF3F3591C40F6FC7384
:1023AC000B40002B0AD0FB68591E7B685B685B00F6
:1023BC00B1FBF3F30133C3F30B0351E004234FE000
:1023CC007B689B68002B11D1FB68581E7B68596891
:1023DC000B465B000B44B0FBF3F30133C3F30B036D
:1023EC00002B0CBF01230023DBB212E0FB68581E4C
:1023FC007B6859680B469B000B4499000B44B0FB5F
:10240C00F3F30133C3F30B03002B0CBF01230023A5
:10241C00DBB2002B01D0012322E07B689B68002BF0
:10242C000ED1FB68581E7B6859680B465B000B4449
:10243C00B0FBF3F30133C3F30B0343F400430FE09E
:10244C00FB68581E7B6859680B469B000B4499002F
:10245C000B44B0FBF3F30133C3F30B0343F44043DE
:10246C00796809681343CB617B681B681B6823F090
:10247C00C0017B68DA697B681B6A1A437B681B683E
:10248C000A431A607B681B689B6823F4034323F0A0
:10249C00FF037A6811697A68D26811437A68126806
:1024AC000B4393607B681B68DB6823F0FF017B6840
:1024BC005A697B689B691A437B681B680A43DA601C
:1024CC007B681B681A687B681B6842F001021A6003
:1024DC007B6800221A647B68202283F83D207B688D
:1024EC0000221A637B68002283F83E2000231846E2
:1024FC001037BD4680BD00BFA08601007F841E0042
:10250C00FF083D0083DE1B43D34D621080B588B0BD
:10251C0002AFF8607A601A460B467B8113463B810A
:10252C00FFF7C0FB7861FB6893F83D30DBB2202BE2
:10253C0040F0E0807B690093192301227049F86810
:10254C0000F064F90346002B01D00223D3E0FB68B2
:10255C0093F83C30012B01D10223CCE0FB68012223
:10256C0083F83C20FB681B681B6803F00103012BFC
:10257C0007D0FB681B681A68FB681B6842F00102F5
:10258C001A60FB681B681A68FB681B6822F40062FF
:10259C001A60FB68212283F83D20FB68102283F827
:1025AC003E20FB6800221A64FB687A685A62FB685A
:1025BC003A895A85FB685B8D9AB2FB681A85FB6871
:1025CC00504ADA6279897B693A6AF86800F09CF8BB
:1025DC000346002B01D001238DE000233B61FB68F7
:1025EC001B685B693B61FB681B689B693B613B69D2
:1025FC0066E07A69396AF86800F022FA0346002B23
:10260C000DD0FB681B6C042B07D1FB681B681A6888
:10261C00FB681B6842F400721A6001236BE0FB68D4
:10262C005B6A1A78FB681B681A61FB685B6A5A1C48
:10263C00FB685A62FB685B8D9BB2013B9AB2FB68EC
:10264C005A85FB681B8D013B9AB2FB681A85FB68A7
:10265C001B685B6903F00403042B1BD1FB681B8D07
:10266C00002B17D0FB685B6A1A78FB681B681A6131
:10267C00FB685B6A5A1CFB685A62FB685B8D9BB2F9
:10268C00013B9AB2FB685A85FB681B8D013B9AB2E1
:10269C00FB681A857A69396AF86800F019FA0346FA
:1026AC00002B0DD0FB681B6C042B07D1FB681B683F
:1026BC001A68FB681B6842F400721A6001231AE066
:1026CC00FB681B8D002B94D1FB681B681A68FB6898
:1026DC001B6842F400721A60FB68202283F83D20CC
:1026EC00FB68002283F83E20FB68002283F83C2024
:1026FC00002300E0022318461837BD4680BD00BFFA
:10270C00020010000000FFFF80B588B002AFF86037
:10271C007A603B600B467B81FB68DB6A7B617B6983
:10272C00082B06D07B69012B03D07B6913F5803F06
:10273C0008D1FB681B681A68FB681B6842F480723E
:10274C001A600BE0FB681B6B122B07D1FB681B6834
:10275C001A68FB681B6842F480721A603B6800932D
:10276C007B6800224FF00111F86800F04FF8034627
:10277C00002B0DD0FB681B681B6803F48073B3F54A
:10278C00807F03D1FB684FF400721A64032335E099
:10279C00FB681B69B3F5804F08D17B89DBB21A4605
:1027AC00FB681B6802F0FE021A611BE07B89DB11DF
:1027BC00DBB203F00603DBB263F00F03DAB2FB68A3
:1027CC001B681A613B687A680E49F86800F098F843
:1027DC000346002B01D0012310E07B89DAB2FB68A1
:1027EC001B681A613B687A680749F86800F088F83A
:1027FC000346002B01D0012300E0002318461837B4
:10280C00BD4680BD080001000200010080B584B007
:10281C0000AFF860B9603B601346FB7148E03B6861
:10282C00B3F1FF3F44D0FFF73DFA0246BB69D31A20
:10283C003A689A4202D33B68002B39D1BB681B0C17
:10284C00DBB2012B0DD1FB681B685B69DA43BB68FB
:10285C0013409BB2002B0CBF01230023DBB21A46A2
:10286C000CE0FB681B689B69DA43BB6813409BB2A6
:10287C00002B0CBF01230023DBB21A46FB799A42D2
:10288C0016D1FB6800221A63FB68202283F83D20D6
:10289C00FB68002283F83E20FB681B6C43F020028F
:1028AC00FB681A64FB68002283F83C20012323E0B8
:1028BC00BB681B0CDBB2012B0DD1FB681B685B6981
:1028CC00DA43BB6813409BB2002B0CBF01230023DF
:1028DC00DBB21A460CE0FB681B689B69DA43BB68E9
:1028EC0013409BB2002B0CBF01230023DBB21A4612
:1028FC00FB799A4293D0002318461037BD4680BD11
:10290C0080B584B000AFF860B9607A603B6071E06C
:10291C00FB681B685B6903F48063B3F5806F23D19C
:10292C00FB681B681A68FB681B6842F400721A602B
:10293C00FB681B686FF480625A61FB6800221A63A3
:10294C00FB68202283F83D20FB68002283F83E20A0
:10295C00FB681B6C43F00402FB681A64FB680022E2
:10296C0083F83C20012367E07B68B3F1FF3F41D043
:10297C00FFF798F902463B68D31A7A689A4202D359
:10298C007B68002B36D1BB681B0CDBB2012B0CD146
:10299C00FB681B685B69DA43BB6813409BB2002B76
:1029AC0014BF01230023DBB20BE0FB681B689B699F
:1029BC00DA43BB6813409BB2002B14BF01230023E6
:1029CC00DBB2002B16D0FB6800221A63FB682022B6
:1029DC0083F83D20FB68002283F83E20FB681B6CCB
:1029EC0043F02002FB681A64FB68002283F83C2049
:1029FC00012321E0BB681B0CDBB2012B0CD1FB6863
:102A0C001B685B69DA43BB6813409BB2002B14BF95
:102A1C0001230023DBB20BE0FB681B689B69DA43E4
:102A2C00BB6813409BB2002B14BF01230023DBB205
:102A3C00002B7FF46DAF002318461037BD4680BDC8
:102A4C0080B584B000AFF860B9607A6034E0F868A3
:102A5C0000F086F80346002B01D0012334E0BB685C
:102A6C00B3F1FF3F28D0FFF71DF902467B68D31A5C
:102A7C00BA689A4202D3BB68002B1DD1FB681B6855
:102A8C005B6903F08003802B16D0FB6800221A636D
:102A9C00FB68202283F83D20FB68002283F83E204F
:102AAC00FB681B6C43F02002FB681A64FB68002275
:102ABC0083F83C20012307E0FB681B685B6903F08B
:102ACC008003802BC3D1002318461037BD4680BD30
:102ADC0080B584B000AFF860B9607A6034E0F86813
:102AEC0000F03EF80346002B01D0012334E0BB6814
:102AFC00B3F1FF3F28D0FFF7D5F802467B68D31A15
:102B0C00BA689A4202D3BB68002B1DD1FB681B68C4
:102B1C005B6903F00403042B16D0FB6800221A63D4
:102B2C00FB68202283F83D20FB68002283F83E20BE
:102B3C00FB681B6C43F02002FB681A64FB680022E4
:102B4C0083F83C20012307E0FB681B685B6903F0FA
:102B5C000403042BC3D1002318461037BD4680BD97
:102B6C0080B483B000AF78607B681B685B6903F44A
:102B7C008063B3F5806F1BD17B681B686FF4806238
:102B8C005A617B6800221A637B68202283F83D20FF
:102B9C007B68002283F83E207B681B6C43F00402A8
:102BAC007B681A647B68002283F83C20012300E0D8
:102BBC00002318460C37BD4680BC704780B586B0E4
:102BCC0000AF78607B68002B01D101236CE27B683D
:102BDC001B6803F00103002B00F08780924B5B68AD
:102BEC0003F00C03042B0CD08F4B5B6803F00C032D
:102BFC00082B12D18C4B5B6803F48033B3F5803F08
:102C0C000BD1894B1B6803F40033002B6CD07B6811
:102C1C005B68002B68D1012346E27B685B68B3F5E7
:102C2C00803F06D1804B1B687F4A43F4803313608E
:102C3C002EE07B685B68002B0CD17B4B1B687A4ABF
:102C4C0023F480331360784B1B68774A23F480237A
:102C5C0013601DE07B685B68B3F5A02F0CD1724B41
:102C6C001B68714A43F4802313606F4B1B686E4AD8
:102C7C0043F4803313600BE06B4B1B686A4A23F4FC
:102C8C0080331360684B1B68674A23F480231360FE
:102C9C007B685B68002B13D0FFF704F8386108E001
:102CAC00FFF700F802463B69D31A642B01D90323C2
:102CBC00FAE15D4B1B6803F40033002BF0D014E0F9
:102CCC00FEF7F0FF386108E0FEF7ECFF02463B69C7
:102CDC00D31A642B01D90323E6E1534B1B6803F48D
:102CEC000033002BF0D100E000BF7B681B6803F0C1
:102CFC000203002B63D04C4B5B6803F00C03002BDE
:102D0C000BD0494B5B6803F00C03082B1CD1464BD2
:102D1C005B6803F48033002B16D1434B1B6803F024
:102D2C000203002B05D07B681B69012B01D001230A
:102D3C00BAE13D4B1B6823F0F8027B685B69DB0052
:102D4C00394913430B603AE07B681B69002B20D098
:102D5C00364B01221A60FEF7A5FF386108E0FEF73A
:102D6C00A1FF02463B69D31A022B01D903239BE135
:102D7C002D4B1B6803F00203002BF0D02A4B1B6871
:102D8C0023F0F8027B685B69DB00274913430B6077
:102D9C0015E0264B00221A60FEF784FF386108E02C
:102DAC00FEF780FF02463B69D31A022B01D903239D
:102DBC007AE11D4B1B6803F00203002BF0D17B68FA
:102DCC001B6803F00803002B3AD07B689B69002B2F
:102DDC0019D0174B01221A60FEF764FF386108E026
:102DEC00FEF760FF02463B69D31A022B01D903237D
:102DFC005AE10D4B5B6A03F00203002BF0D001206B
:102E0C0000F0CCFA1CE00A4B00221A60FEF74AFFD5
:102E1C0038610FE0FEF746FF02463B69D31A022BDE
:102E2C0008D9032340E100BF0010024000004242D9
:102E3C00800442429E4B5B6A03F00203002BE9D1F3
:102E4C007B681B6803F00403002B00F0A6800023B2
:102E5C00FB75974BDB6903F08053002B0DD1944B22
:102E6C00DB69934A43F08053D361914BDB6903F0E8
:102E7C008053BB60BB680123FB758E4B1B6803F44E
:102E8C008073002B18D18B4B1B688A4A43F48073D8
:102E9C001360FEF707FF386108E0FEF703FF0246F8
:102EAC003B69D31A642B01D90323FDE0814B1B68CA
:102EBC0003F48073002BF0D07B68DB68012B06D108
:102ECC007B4B1B6A7A4A43F0010313622DE07B684B
:102EDC00DB68002B0CD1764B1B6A754A23F001037F
:102EEC001362734B1B6A724A23F0040313621CE0D7
:102EFC007B68DB68052B0CD16D4B1B6A6C4A43F06D
:102F0C00040313626A4B1B6A694A43F001031362A0
:102F1C000BE0674B1B6A664A23F001031362644B98
:102F2C001B6A634A23F0040313627B68DB68002B83
:102F3C0015D0FEF7B7FE38610AE0FEF7B3FE024685
:102F4C003B69D31A41F28832934201D90323ABE097
:102F5C00574B1B6A03F00203002BEED014E0FEF774
:102F6C00A1FE38610AE0FEF79DFE02463B69D31ACA
:102F7C0041F28832934201D9032395E04C4B1B6AF2
:102F8C0003F00203002BEED1FB7D012B05D1484B46
:102F9C00DB69474A23F08053D3617B68DB69002BE4
:102FAC0000F08180424B5B6803F00C03082B61D06E
:102FBC007B68DB69022B46D13F4B00221A60FEF77F
:102FCC0071FE386108E0FEF76DFE02463B69D31ACC
:102FDC00022B01D9032367E0354B1B6803F0007308
:102FEC00002BF0D17B681B6AB3F5803F08D1304BC6
:102FFC005B6823F400327B689B682D4913434B605C
:10300C002B4B5B6823F474127B68196A7B685B6AD0
:10301C000B43274913434B60274B01221A60FEF7E1
:10302C0041FE386108E0FEF73DFE02463B69D31ACB
:10303C00022B01D9032337E01D4B1B6803F00073EF
:10304C00002BF0D02FE01C4B00221A60FEF72AFE5A
:10305C00386108E0FEF726FE02463B69D31A022BC4
:10306C0001D9032320E0124B1B6803F00073002BE3
:10307C00F0D118E07B68DB69012B01D1012313E04F
:10308C000B4B5B68FB60FB6803F480327B681B6A4C
:10309C009A4206D1FB6803F470127B685B6A9A4211
:1030AC0001D0012300E0002318461837BD4680BD2F
:1030BC0000100240007000406000424280B584B0B5
:1030CC0000AF786039607B68002B01D10123D0E020
:1030DC006A4B1B6803F007033A689A4210D9674B96
:1030EC001B6823F0070265493B6813430B60634B75
:1030FC001B6803F007033A689A4201D00123B8E039
:10310C007B681B6803F00203002B20D07B681B68D4
:10311C0003F00403002B05D0594B5B68584A43F469
:10312C00E06353607B681B6803F00803002B05D039
:10313C00534B5B68524A43F460535360504B5B688B
:10314C0023F0F0027B689B684D4913434B607B680E
:10315C001B6803F00103002B40D07B685B68012BDC
:10316C0007D1474B1B6803F40033002B15D1012307
:10317C007FE07B685B68022B07D1414B1B6803F037
:10318C000073002B09D1012373E03D4B1B6803F046
:10319C000203002B01D101236BE0394B5B6823F058
:1031AC0003027B685B68364913434B60FEF77AFD7C
:1031BC00F8600AE0FEF776FD0246FB68D31A41F28E
:1031CC008832934201D9032353E02D4B5B6803F003
:1031DC000C027B685B689B009A42EBD1274B1B6807
:1031EC0003F007033A689A4210D2244B1B6823F071
:1031FC00070222493B6813430B60204B1B6803F00A
:10320C0007033A689A4201D0012332E07B681B68BD
:10321C0003F00403002B08D0194B5B6823F4E06225
:10322C007B68DB68164913434B607B681B6803F0B3
:10323C000803002B09D0124B5B6823F460527B68A7
:10324C001B69DB000E4913434B6000F021F802466A
:10325C000B4B5B681B0903F00F030A49CB5C22FA8A
:10326C0003F3094A1360094B1B681846FEF7D8FC98
:10327C00002318461037BD4680BD00BF0020024019
:10328C0000100240404A0008980000209C000020DA
:10329C0080B487B000AF0023FB600023BB60002329
:1032AC007B6100237B6000233B611E4B5B68FB60F2
:1032BC00FB6803F00C03042B02D0082B03D027E08F
:1032CC00194B3B6127E0FB689B0C03F00F03174A7B
:1032DC00D35C7B60FB6803F48033002B10D0114B64
:1032EC005B685B0C03F00103114AD35CBB607B6829
:1032FC000D4A02FB03F2BB68B2FBF3F37B6104E003
:10330C007B680C4A02FB03F37B617B693B6102E047
:10331C00054B3B6100BF3B6918461C37BD4680BC62
:10332C00704700BF0010024000127A00584A000893
:10333C00684A000800093D0080B400AF024B1B68CE
:10334C001846BD4680BC70479800002080B500AF81
:10335C00FFF7F2FF0246054B5B681B0A03F00703FD
:10336C000349CB5C22FA03F3184680BD00100240DF
:10337C00504A000880B500AFFFF7DEFF0246054B50
:10338C005B68DB0A03F007030349CB5C22FA03F307
:10339C00184680BD00100240504A000880B485B029
:1033AC0000AF78600A4B1B680A4AA2FB03235B0A36
:1033BC007A6802FB03F3FB6000BFFB685A1EFA60DD
:1033CC00002BF9D100BF00BF1437BD4680BC70473D
:1033DC0098000020D34D621080B582B000AF7860A9
:1033EC007B68002B01D1012341E07B6893F83D30D1
:1033FC00DBB2002B06D17B68002283F83C20786876
:10340C00FEF7A6FA7B68022283F83D207B681A68D7
:10341C007B6804331946104600F05CFA7B68012285
:10342C0083F846207B68012283F83E207B680122CA
:10343C0083F83F207B68012283F840207B680122BF
:10344C0083F841207B68012283F842207B680122AB
:10345C0083F843207B68012283F844207B68012297
:10346C0083F845207B68012283F83D200023184611
:10347C000837BD4680BD000080B485B000AF7860D1
:10348C007B6893F83D30DBB2012B01D001233AE08D
:10349C007B68022283F83D207B681B68DA687B68B6
:1034AC001B6842F00102DA607B681B68184A934281
:1034BC000ED07B681B68B3F1804F09D07B681B680A
:1034CC00144A934204D07B681B68134A934211D16F
:1034DC007B681B689B6803F00703FB60FB68062B8B
:1034EC0010D07B681B681A687B681B6842F001026D
:1034FC001A6007E07B681B681A687B681B6842F0DF
:10350C0001021A60002318461437BD4680BC704770
:10351C00002C0140000400400008004080B584B03D
:10352C0000AF78607B681B68DB68FB607B681B689E
:10353C001B69BB60BB6803F00203002B20D0FB6847
:10354C0003F00203002B1BD07B681B686FF0020298
:10355C001A617B6801221A777B681B689B6903F0F0
:10356C000303002B03D0786800F098F905E0786825
:10357C0000F08BF9786800F09AF97B6800221A77D2
:10358C00BB6803F00403002B20D0FB6803F004039A
:10359C00002B1BD07B681B686FF004021A617B68E0
:1035AC0002221A777B681B689B6903F44073002B1B
:1035BC0003D0786800F072F905E0786800F065F9DE
:1035CC00786800F074F97B6800221A77BB6803F006
:1035DC000803002B20D0FB6803F00803002B1BD042
:1035EC007B681B686FF008021A617B6804221A77EB
:1035FC007B681B68DB6903F00303002B03D078683E
:10360C0000F04CF905E0786800F03FF9786800F0BC
:10361C004EF97B6800221A77BB6803F01003002B6D
:10362C0020D0FB6803F01003002B1BD07B681B68B9
:10363C006FF010021A617B6808221A777B681B688E
:10364C00DB6903F44073002B03D0786800F026F993
:10365C0005E0786800F019F9786800F028F97B68C3
:10366C0000221A77BB6803F00103002B0CD0FB6817
:10367C0003F00103002B07D07B681B686FF001027D
:10368C001A617868FDF770FEBB6803F08003002BAD
:10369C000CD0FB6803F08003002B07D07B681B6801
:1036AC006FF080021A61786800F07FFABB6803F053
:1036BC004003002B0CD0FB6803F04003002B07D019
:1036CC007B681B686FF040021A61786800F0F8F8AC
:1036DC00BB6803F02003002B0CD0FB6803F0200325
:1036EC00002B07D07B681B686FF020021A6178688A
:1036FC0000F052FA00BF1037BD4680BD80B584B0D3
:10370C0000AF786039600023FB737B6893F83C3022
:10371C00012B01D10223B4E07B68012283F83C2009
:10372C007B68022283F83D207B681B689B68BB602A
:10373C00BB6823F07703BB60BB6823F47F43BB609B
:10374C007B681B68BA689A603B681B68B3F5005FBE
:10375C003ED0B3F5005F00F28780B3F5805F00F0D8
:10376C008680B3F5805F7FD8702B1AD0702B7BD8F6
:10377C00602B50D0602B77D8502B3CD0502B73D86B
:10378C00402B58D0402B6FD8302B64D0302B6BD8BB
:10379C00202B60D0202B67D8002B5CD0102B5AD05C
:1037AC0062E07B6818683B6899683B685A683B68BC
:1037BC00DB6800F074F97B681B689B68BB60BB68B6
:1037CC0043F07703BB607B681B68BA689A604FE074
:1037DC007B6818683B6899683B685A683B68DB688B
:1037EC0000F05DF97B681B689A687B681B6842F483
:1037FC0080429A603CE07B6818683B6859683B687B
:10380C00DB681A4600F0D4F87B681B685021184618
:10381C0000F02BF92CE07B6818683B6859683B6812
:10382C00DB681A4600F0F2F87B681B6860211846CA
:10383C0000F01BF91CE07B6818683B6859683B6812
:10384C00DB681A4600F0B4F87B681B684021184608
:10385C0000F00BF90CE07B681A683B681B68194692
:10386C00104600F002F903E00123FB7300E000BFF7
:10387C007B68012283F83D207B68002283F83C2082
:10388C00FB7B18461037BD4680BD80B483B000AFBB
:10389C00786000BF0C37BD4680BC704780B483B0E5
:1038AC0000AF786000BF0C37BD4680BC704780B459
:1038BC0083B000AF786000BF0C37BD4680BC70474A
:1038CC0080B483B000AF786000BF0C37BD4680BCBD
:1038DC007047000080B485B000AF786039607B68B9
:1038EC001B68FB607B682F4A93420BD07B68B3F15B
:1038FC00804F07D07B682C4A934203D07B682B4ABD
:10390C00934208D1FB6823F07003FB603B685B6853
:10391C00FA681343FB607B68224A93420BD07B68A6
:10392C00B3F1804F07D07B681F4A934203D07B686A
:10393C001E4A934208D1FB6823F44073FB603B683A
:10394C00DB68FA681343FB60FB6823F080023B687A
:10395C005B691343FB607B68FA681A603B689A6882
:10396C007B68DA623B681A687B689A627B680D4AEE
:10397C00934203D13B681A697B681A637B68012206
:10398C005A617B681B6903F00103002B05D07B682F
:10399C001B6923F001027B681A6100BF1437BD4616
:1039AC0080BC7047002C014000040040000800401F
:1039BC0080B487B000AFF860B9607A60FB681B6AAE
:1039CC007B61FB681B6A23F00102FB681A62FB68CF
:1039DC009B693B613B6923F0F0033B617B681B01F6
:1039EC003A6913433B617B6923F00A037B617A6973
:1039FC00BB6813437B61FB683A699A61FB687A691F
:103A0C001A6200BF1C37BD4680BC704780B487B0BB
:103A1C0000AFF860B9607A60FB681B6A7B61FB6879
:103A2C001B6A23F01002FB681A62FB689B693B61FE
:103A3C003B6923F470433B617B681B033A69134376
:103A4C003B617B6923F0A0037B61BB681B017A6936
:103A5C0013437B61FB683A699A61FB687A691A6265
:103A6C0000BF1C37BD4680BC704780B485B000AF2A
:103A7C00786039607B689B68FB60FB6823F070039F
:103A8C00FB603A68FB68134343F00703FB607B68F9
:103A9C00FA689A6000BF1437BD4680BC704780B48A
:103AAC0087B000AFF860B9607A603B60FB689B68D8
:103ABC007B617B6923F47F437B613B681A027B68E3
:103ACC001A43BB6813437A6913437B61FB687A69B9
:103ADC009A6000BF1C37BD4680BC704780B485B06F
:103AEC0000AF786039607B6893F83C30012B01D1D2
:103AFC00022346E07B68012283F83C207B6802228B
:103B0C0083F83D207B681B685B68FB607B681B68E7
:103B1C009B68BB60FB6823F07003FB603B681B6811
:103B2C00FA681343FB607B681B68FA685A607B6811
:103B3C001B68164A93420ED07B681B68B3F1804F0A
:103B4C0009D07B681B68124A934204D07B681B68BF
:103B5C00104A93420CD1BB6823F08003BB603B68D6
:103B6C005B68BA681343BB607B681B68BA689A6071
:103B7C007B68012283F83D207B68002283F83C207F
:103B8C00002318461437BD4680BC7047002C0140FA
:103B9C00000400400008004080B483B000AF78609F
:103BAC0000BF0C37BD4680BC704780B483B000AFFB
:103BBC00786000BF0C37BD4680BC704780B582B0C2
:103BCC0000AF78607B68002B01D1012342E07B6859
:103BDC0093F84130DBB2002B06D17B68002283F8CE
:103BEC0040207868FDF7D8FE7B68242283F84120BA
:103BFC007B681B68DA687B681B6822F40052DA6009
:103C0C00786800F071F97B681B681A697B681B681F
:103C1C0022F490421A617B681B685A697B681B68A6
:103C2C0022F02A025A617B681B68DA687B681B6881
:103C3C0042F40052DA607B6800225A647B682022CE
:103C4C0083F841207B68202283F842207B68002285
:103C5C005A63002318460837BD4680BD80B58AB02C
:103C6C0002AFF860B9603B601346FB8000237B61B8
:103C7C00FB6893F84130DBB2202B75D1BB68002B6D
:103C8C0002D0FB88002B01D101236EE0FB680022DF
:103C9C005A64FB68212283F84120FEF703F878610F
:103CAC00FB68FA889A84FB68FA88DA84FB689B685C
:103CBC00B3F5805F08D1FB681B69002B04D100238E
:103CCC00FB61BB68BB6103E0BB68FB610023BB61AC
:103CDC002EE03B6800937B6900228021F86800F09D
:103CEC0048F80346002B05D0FB68202283F84120BE
:103CFC0003233AE0FB69002B0BD1BB691B881A46E6
:103D0C00FB681B68C2F308025A60BB690233BB61D3
:103D1C0007E0FB691A78FB681B685A60FB69013382
:103D2C00FB61FB68DB8C9BB2013B9AB2FB68DA84CB
:103D3C00FB68DB8C9BB2002BCBD13B6800937B697F
:103D4C0000224021F86800F014F80346002B05D03F
:103D5C00FB68202283F84120032306E0FB68202225
:103D6C0083F84120002300E0022318462037BD468B
:103D7C0080BD80B586B000AFF860B9603B6013467B
:103D8C00FB713BE03B6AB3F1FF3F37D0FDF78AFF95
:103D9C0002463B68D31A3A6A9A4202D33B6A002B1A
:103DAC0001D103233AE0FB681B68DB6803F00403D2
:103DBC00002B23D0BB68802B20D0BB68402B1DD0A0
:103DCC00FB681B681B6803F00803082B16D1002343
:103DDC007B61FB681B681B687B61FB681B685B680D
:103DEC007B617B69F86800F01DF8FB6808225A6457
:103DFC00FB68002283F8402001230FE0FB681B685E
:103E0C001A68BB681340BA689A420CBF012300239E
:103E1C00DBB21A46FB799A42B4D000231846183705
:103E2C00BD4680BD80B495B000AF78607B681B68E0
:103E3C000C337B637B6B53E8003F3B633B6B23F49E
:103E4C009073FB647B681B680C33FA6C3A64FB63FD
:103E5C00F96B3A6C41E80023BB63BB6B002BE5D1DB
:103E6C007B681B6814333B623B6A53E8003FFB6181
:103E7C00FB6923F00103BB647B681B681433BA6CC9
:103E8C00FA62BB62B96AFA6A41E800237B627B6A18
:103E9C00002BE5D17B681B6B012B19D17B681B6850
:103EAC000C33FB60FB6853E8003FBB60BB6823F03E
:103EBC0010037B647B681B680C337A6CBA617B6182
:103ECC007969BA6941E800233B613B69002BE5D174
:103EDC007B68202283F842207B6800221A6300BF93
:103EEC005437BD4680BC704780B584B000AF786055
:103EFC007B681B681B6923F440517B68DA687B681C
:103F0C001B680A431A617B689A687B681B691A43B1
:103F1C007B685B691343BB607B681B68DB6823F4BD
:103F2C00B05323F00C037A681268B9680B43D36062
:103F3C007B681B685B6923F440717B689A697B68BA
:103F4C001B680A435A617B681B682C4A934203D155
:103F5C00FFF710FAF86002E0FFF7F8F9F860FA687A
:103F6C0013469B0013449A001A447B685B689B00C1
:103F7C00B2FBF3F3224AA2FB03235B091901FA6893
:103F8C0013469B0013449A001A447B685B689B00A1
:103F9C00B2FBF3F21A4BA3FB02035B09642000FB98
:103FAC0003F3D31A1B013233154AA2FB03235B091B
:103FBC0003F0F0031944FA6813469B0013449A006B
:103FCC001A447B685B689B00B2FBF3F20C4BA3FBBF
:103FDC0002035B09642000FB03F3D31A1B01323389
:103FEC00074AA2FB03235B0903F00F027B681B68E3
:103FFC000A449A6000BF1037BD4680BD00380140AE
:10400C001F85EB51014B1868704700BFA4000020BE
:10401C0070B500260C4D0D4C641BA410A64209D1A2
:10402C0000F090FC00260A4D0A4C641BA410A6421A
:10403C0005D170BD55F8043B98470136EEE755F8AD
:10404C00043B98470136F2E7A04A0008A04A000852
:10405C00A04A0008A44A000803460244934200D137
:10406C00704703F8011BF9E70CB430B5174B0C1E65
:10407C001D689DB008DA8B234FF0FF302B601DB00C
:10408C00BDE8304002B070474FF40273ADF8143005
:10409C000CBF234604F1FF33049307934FF6FF73D1
:1040AC0002900690ADF81630284621AB209A02A952
:1040BC00019300F089F8431CBCBF8B232B60002CB0
:1040CC00DDD00022029B1A70D9E700BFA4000020AB
:1040DC000EB46FF0004100B59CB01DAB0290069081
:1040EC00079104910848094953F8042B059100687D
:1040FC0002A9019300F068F80022029B1A701CB010
:10410C005DF804EB03B07047A40000200802FFFF29
:10411C002DE9F0478E6882469E420C4690461F461B
:10412C0038D88A8912F4906F32D025680969013326
:10413C00A5EB010965694B4405EB450505EBD57508
:10414C006D109D4238BF1D46530531D5294600F0F0
:10415C0053FB064650B90C234FF0FF30CAF8003021
:10416C00A38943F04003A381BDE8F0874A46216947
:10417C0000F0CEFAA38923F4906343F08003A3816B
:10418C0026614E4426603E466561A5EB0905A56097
:10419C00BE4200D93E4632464146206800F0C6FA7F
:1041AC00A36822689B1B32440020A3602260DBE7DB
:1041BC002A4600F07BFB06460028E1D150462169D7
:1041CC0000F0CEFAC7E700002DE9F04F98468B8936
:1041DC0007461B060D4614469DB00ED50B6963B9F8
:1041EC00402100F009FB2860286120B90C233B60BA
:1041FC004FF0FF30D1E040236B6100230993202363
:10420C008DF8293030234FF00109CDF80C80DFF800
:10421C00A4818DF82A3023469A4613F8012B0AB153
:10422C00252AF9D1BAEB040B0BD05B462246294662
:10423C003846FFF76DFF013000F0AA80099A5A4406
:10424C0009929AF80030002B00F0A28000234FF066
:10425C00FF32CDE905230AF1010A049307938DF887
:10426C0053301A935446052214F8011B514800F0A0
:10427C0041FA049AD8B9D00644BF20238DF85330A4
:10428C00110744BF2B238DF853309AF800302A2B9A
:10429C0015D0544600204FF00A0C079A214611F80D
:1042AC00013B303B092B4ED9B0B1079214E0A0EB87
:1042BC00080309FA03F31343A2460493D2E7039BC2
:1042CC00191D1B680391002BBBBF5B4242F002021D
:1042DC0007930793B8BF049223782E2B0CD16378E5
:1042EC002A2B35D1039B02341A1D1B680392002B19
:1042FC00B8BF4FF0FF330593DFF8C8A00322504638
:10430C00217800F0F7F940B14023A0EB0A0003FA42
:10431C0000F0049B01340343049314F8011B0622A0
:10432C0025488DF8281000F0E5F9002838D0234BEB
:10433C001BBB039B073323F0070308330393099B31
:10434C003344099367E70C4601200CFB0232A5E7C6
:10435C0000234FF00A0C194601340593204610F83F
:10436C00012B303A092A03D9002BC5D00591C3E79C
:10437C00044601230CFB0121F0E703AB00932A4612
:10438C0038460F4B04A9AFF30080421C0646D6D129
:10439C00AB895B063FF52CAF09981DB0BDE8F08FDB
:1043AC0003AB00932A463846054B04A900F07CF871
:1043BC00EBE700BF6A4A0008744A000800000000DE
:1043CC001D410008704A00082DE9F0471646994631
:1043DC008A680B6907469342B8BF1346336091F85D
:1043EC0043200C46DDF820800AB10133336023688A
:1043FC00990642BF336802333360256815F0060511
:10440C0006D104F1190AE36832689B1AAB4228DC26
:10441C0094F84320131E226818BF012392062DD452
:10442C004946384604F14302C047013020D0236886
:10443C00E56803F00603042B18BF002532684FF023
:10444C000006A36808BFAD1A226908BF25EAE57506
:10445C009342C4BF9B1AED181A34B5421AD10020EE
:10446C0008E00123524649463846C047013003D183
:10447C004FF0FF30BDE8F0870135C4E73020E1187C
:10448C0081F843005A1C94F845102244023382F8F8
:10449C004310C5E70123224649463846C047013040
:1044AC00E6D00136D9E700002DE9FF470C46277E00
:1044BC009146782F80469A460C9904F1430207D80E
:1044CC00622F0AD8002F00F0D980582F00F0A4805A
:1044DC0004F1420684F842703AE0A7F16303152B0D
:1044EC00F6D801A050F823F04D45000861450008AE
:1044FC00DD440008DD440008DD440008DD4400080C
:10450C0061450008DD440008DD440008DD44000876
:10451C00DD4400086F46000891450008514600082C
:10452C00DD440008DD44000891460008DD44000825
:10453C0091450008DD440008DD4400085946000898
:10454C000B6804F142061A1D1B680A6084F842309D
:10455C000123A4E0256808682E0600F104030AD59F
:10456C0005680B60002D03DA2D236D4284F843306F
:10457C000A235E4819E015F0400F05680B6018BF60
:10458C002DB2EFE70B682568181D0860280601D5C9
:10459C001D6802E06906FBD51D886F2F0CBF082330
:1045AC000A235248002184F843106668002EA8BFE5
:1045BC002168A660A4BF21F0040121600DB9002E72
:1045CC004DD01646B5FBF3F103FB1157C75D06F84A
:1045DC00017D2F46BB420D46F4D9082B0BD1236825
:1045EC00DF0708D5236961689942DEBF302306F8DE
:1045FC00013C06F1FF36921B22614B462146404698
:10460C00CDF800A003AAFFF7DFFE01304CD14FF02C
:10461C00FF3004B0BDE8F087344884F845700E686C
:10462C00236856F8045B1F060E6014D5D90744BFE7
:10463C0043F0200323601DB9236823F0200323607B
:10464C001023AFE7236843F0200323607823284826
:10465C0084F84530E3E75E0648BFADB2E6E71646A0
:10466C00BBE70B6826681D1D60690D6035061B686D
:10467C0001D5186002E07106FBD5188000231646A0
:10468C002361BAE70B681A1D0A601E6800213046C8
:10469C00626800F02FF808B1801B606063682361CA
:1046AC00002384F84330A8E7324649464046236944
:1046BC00D0470130ABD023689B0713D4E068039B31
:1046CC009842B8BF1846A4E70123324649464046F3
:1046DC00D04701309BD00135E36803995B1AAB429C
:1046EC00F2DCEBE7002504F11906F5E77B4A00083C
:1046FC008C4A0008034610B5C9B2024493421846CE
:10470C0001D1002003E0047801338C42F6D110BDB6
:10471C000A44914200F1FF3300D1704710B511F8F3
:10472C00014B914203F8014FF9D110BD884210B5ED
:10473C0001EB020402D98442234607D8431EA1424E
:10474C0008D011F8012B03F8012FF8E701460244B9
:10475C008A4200D110BD13F8014D02F8014DF7E764
:10476C0038B50546002943D051F8043C0C1F002BEA
:10477C00B8BFE41800F0D0F81E4A1368104633B9DD
:10478C00636014602846BDE8384000F0CBB8A34203
:10479C000AD921686218934201BF1A685B685218E3
:1047AC00226063600460EDE71A465B680BB1A342BC
:1047BC00FAD911685018A0420BD120680144501846
:1047CC0083421160DED118685B680144116053604C
:1047DC00D8E702D90C232B60D4E7206821188B4230
:1047EC0001BF19685B680918216063605460C9E7F0
:1047FC0038BD00BFE0030020F8B5CD1C25F0030543
:10480C0008350C2D38BF0C25002D064601DBA942BE
:10481C0003D90C2333600020F8BD00F07DF821494A
:10482C000A6814469CB9204F3B6823B92146304690
:10483C0000F062F838602946304600F05DF8431C01
:10484C0023D10C233046336000F06CF8E3E7236887
:10485C005B1B17D40B2B03D923601C44256004E08D
:10486C006368A2420CBF0B605360304600F05AF8EC
:10487C0004F10B00231D20F00700C21ACCD01B1A28
:10488C00A350C9E722466468CCE7C41C24F0030497
:10489C00A042E3D0211A304600F02EF80130DDD1D1
:1048AC00CFE700BFE0030020E4030020F8B5074683
:1048BC0014460E4621B91146BDE8F840FFF79CBFDF
:1048CC0022B9FFF74DFF25462846F8BD00F030F819
:1048DC00A0420FD221463846FFF78EFF054600282E
:1048EC00F2D031462246FFF713FF31463846FFF728
:1048FC0037FFE9E73546E7E738B50023054D0446B1
:10490C0008462B60FDF714F9431C02D12B6803B148
:10491C00236038BD44050020014800F011B800BFE9
:10492C004C050020014800F00CB800BF4C050020DD
:10493C0051F8043C181F002BBCBF0B58C018704713
:10494C0070477047F8B500BFF8BC08BC9E4670476E
:0C495C00F8B500BFF8BC08BC9E467047D0
:10496800256400005472616666696320313A202527
:10497800642000005472616666696320313A20251C
:10498800640000005472616666696320323A20252B
:10499800642000005472616666696320323A2025FB
:1049A8006400000044656E20313A20256400000050
:1049B80044656E20323A20256400000054696D6514
:1049C800205265643A2025642000000054696D6512
:1049D800205265643A2025640000000054696D6522
:1049E8002059656C6C6F773A202564200000000020
:1049F80054696D652059656C6C6F773A20256400A1
:104A080054696D6520477265656E3A2025642000FB
:104A180054696D6520477265656E3A20256400000B
:104A28004D6F64653A202564000000004D6F646591
:104A3800206D616E75616C000000000000000000D0
:104A4800010203040607080900000000010203042C
:104A580002030405060708090A0B0C0D0E0F1010B7
:104A68000102232D302B2000686C4C0065666745D9
:104A780046470030313233343536373839414243CE
:104A8800444546003031323334353637383961627F
:084A9800636465660000000084
:044AA00031010008D8
:044AA4000D010008F8
:104AA80001000000010000000100000001000000FA
:104AB80001000000010000000100000001000000EA
:104AC80001000000010000000100000001000000DA
:104AD80001000000010000000100000001000000CA
:104AE800D0070000D0070000D0070000D007000062
:104AF80001000000010000000100000005000000A6
:104B08000200000003000000050000000200000091
:104B18000300000001000000010000000200000086
:104B2800050000000200000003000000050000006E
:104B3800020000000300000000127A0010000000CC
:104B480001000000A8000020000000000000000094
:104B5800000000000000000000000000000000004D
:104B6800000000000000000000000000000000003D
:104B7800000000000000000000000000000000002D
:104B8800000000000000000000000000000000001D
:104B9800000000000000000000000000000000000D
:084BA800000000000000000005
:0400000508001BB51F
:00000001FF
